:020000040800F2
:1000000098AF0020ED740208A15B0208A35B020810
:10001000A55B0208A75B0208A95B020800000000BC
:10002000000000000000000000000000AB5B0208C0
:10003000AD5B020800000000AF5B0208B15B020884
:100040009D760208A1760208A5760208A976020824
:10005000AD760208B1760208B5760208B9760208D4
:10006000BD760208C1760208C5760208C976020884
:10007000CD760208D1760208D5760208D976020834
:10008000DD760208E1760208E5760208E9760208E4
:10009000ED760208F1760208F5760208F976020894
:1000A000FD76020801770208057702080977020841
:1000B0000D77020811770208BD5B02081577020868
:1000C000197702081D7702082177020825770208B0
:1000D000297702082D770208317702083577020860
:1000E000397702083D770208417702084577020810
:1000F000497702084D7702085177020855770208C0
:1001000059770208C75B02085D7702086177020829
:1001100065770208697702086D770208717702082F
:1001200075770208797702087D770208D15B0208AB
:10013000DB5B02088177020885770208897702086D
:100140008D7702089177020895770208997702085F
:100150009D770208E55B0208EF5B0208A1770208C1
:10016000A5770208A9770208AD770208B1770208DF
:10017000B5770208B9770208BD77020800000000D1
:10018000C1770208C5770208C9770208CD7702084F
:10019000D1770208D5770208D9770208DD770208FF
:1001A000E1770208E5770208E9770208F95B0208BF
:1001B000ED770208F1770208F5770208F97702086F
:1001C000FD7702080178020802005178107850EAA1
:1001D000012080B270470100CA78887850EA022076
:1001E0004A7852EA0022087850EA022070470170EB
:1001F000401C89B2090A0170401C70470170401C04
:10020000090A0170401C090A0170401C090A0170AA
:10021000401C704730B405000B00002A06D01C7843
:100220002C705B1C6D1C521E002AF8D130BC70472C
:10023000030019705B1C521E002AFAD17047F0B4FB
:1002400007003C000D00002026782B78F61A3000BD
:100250006D1C641C521E002A01D00028F4D0F0BC92
:1002600070470278002A04D002788A4201D0401CEC
:10027000F7E70078704770B4020000231C00022CDE
:100280001AD2B54D20012858002811D020012E582F
:10029000106886420ED12001284446689068864244
:1002A00008D12001284485685069854202D103E0C5
:1002B00001200300641CE2E7022C08D1002B01D1CD
:1002C000022901D1002000E01220C0B20CE0002978
:1002D00006D1A148210108448089B0F5807F01D171
:1002E000102000E00020C0B270BC7047002102293D
:1002F00006D2994A08011058002801D0491CF6E797
:10030000022901D1002000E00120704730B4020032
:100310000023022B13D290481C0105591468A542F2
:100320000BD11C01044465689468A54205D11C01E9
:10033000204484685069844201D05B1CE9E7022BA9
:100340001ED100200300022B06D2834C1801205836
:10035000002801D05B1CF6E7022B01D1002029E028
:100360007D4815681C01055194681D0105446C60A9
:1003700054691D010544AC6000241D01284484819A
:10038000002907D074481C0120448089002801D02E
:1003900000200FE0002902D04FF4807004E06E4C82
:1003A000180120448089401C6B4D1C012C44A08105
:1003B0005B1C180030BC704710B40200521E022AA9
:1003C0001CD26548130103449B8919000B009BB2A2
:1003D000B3F5807F01D1002319000B009BB2002BE5
:1003E00000D0491E1301034499810B009BB2002BDE
:1003F00002D100241301C450002000E00220C0B24A
:1004000010BC704710B40021022909D2524A0B01D6
:10041000D358834202D100240B01D450491CF3E786
:1004200010BC7047F8B504000027E078002823D0FE
:10043000E06A050001232A0014F13001607801F020
:10044000C3FA002802D00120070015E00020E07068
:10045000216A691AA06981420ED2A0780600022E94
:100460000AD3A069451901232A0014F130016078EC
:1004700001F0AAFA761EF2E73800C0B2F2BD70B5FC
:1004800004000D000026E06A854216D02000FFF728
:10049000C9FF06003000C0B200280ED101232A0097
:1004A00014F13001607801F075FA002804D05FF093
:1004B000FF30050001200600E5623000C0B270BDCB
:1004C00038B504002000FFF7ADFF05002800C0B2DA
:1004D00000283DD12078032831D1207901282ED160
:1004E0004FF40072002114F13000FFF7A1FE4AF62C
:1004F000552104F22E20FFF77AFEDFF83C1A14F1A2
:100500003000FFF77BFEDFF8341A14F50570FFF7B3
:1005100075FE216914F50670FFF770FEE16814F5A9
:100520000770FFF76BFEE069401CE0620123E26A9E
:1005300014F13001607801F047FA002020710022A8
:100540000021607801F05AFA002801D0012005004E
:100550002800C0B232BD00002C9D00200200891E80
:100560005069801E814201D3002004E05389906AC3
:1005700003FB0101080070472DE9F84304000D005A
:10058000D4F80080022D03D3D8F81400854202D39A
:100590005FF0010961E05FF0FF3998F80000012881
:1005A00004D058D3032842D02FD354E0280010EBB6
:1005B00050000700D8F8201011EB57214046FFF7F4
:1005C0005EFF002849D1F805C00D404490F8300086
:1005D00006007F1CD8F8201011EB57214046FFF78A
:1005E0004EFF002839D1F805C00D404490F8300086
:1005F00056EA0026E80703D5B1465FEA191903E079
:100600005FEA06595FEA195927E0D8F8201011EB84
:1006100015214046FFF733FF00281ED16800C005B2
:10062000C00D40443030FFF7CFFD814615E0D8F8CB
:10063000201011EBD5114046FFF721FF00280CD107
:10064000A800C005C00D40443030FFF7C4FD20F0C5
:100650007040814601E0012081464846BDE8F283B2
:100660002DE9F84304000D0016005FF00208022D8A
:10067000C0F084806069854280F080802078012805
:1006800004D07BD303285AD042D377E0280010EB64
:1006900050008146216A11EB59212000FFF7EFFE3F
:1006A00080464046C0B2002868D15FEAC950C00DFC
:1006B00020443030070019F10109E80705D53878E2
:1006C00010F00F0050EA061000E0300038700120F2
:1006D000E070216A11EB59212000FFF7D0FE80461F
:1006E0004046C0B2002849D15FEAC950C00D20443D
:1006F00030300700E80702D53100090904E0300076
:10070000000A397860F3030139700120E07035E0A8
:10071000216A11EB15212000FFF7B1FE804640460B
:10072000C0B200282AD1310089B26800C005C00DCE
:1007300020443030FFF75BFD0120E0701EE0216AAD
:1007400011EBD5112000FFF79AFE80464046C0B25B
:10075000002813D1A800C005C00D20443030FFF799
:100760003AFD000F60F31F763100A800C005C00DF0
:1007700020443030FFF742FD0120E0704046C0B217
:10078000BDE8F2832DE9F84306000F0015005FF085
:100790000009D6F80080022F03D3D8F8140087424E
:1007A00001D3022044E0002D0DD05FF0FF3229007C
:1007B0004046FFF755FF81464846C0B2002802D0A8
:1007C0004846C0B234E039003000FFF7D5FE0400DF
:1007D000002C2CD0012C01D1022029E014F1010FB2
:1007E00001D1012024E0002239004046FFF738FF04
:1007F00081464846C0B2002802D04846C0B217E041
:10080000D8F81010D8F81400801E81420AD2D8F807
:100810001000401CC8F8100098F8040050F00100C7
:1008200088F804002700D8F814008742CBD30020B2
:10083000BDE8F2832DE9F04707000C00D7F80080EF
:10084000002C0AD1D8F80C60002E03D0D8F8140080
:10085000864217D30120060014E021003800FFF77C
:100860008BFE0500022D01D2012061E015F1010F80
:1008700001D128005CE0D8F81400854201D228009C
:1008800056E02600B14619F10109D8F81400814557
:1008900005D3022081464E4501D2002048E049465A
:1008A0003800FFF769FE0500002D0BD15FF0FF3225
:1008B00049464046FFF7D4FE82465046C0B2002863
:1008C00013D10AE0012D02D015F1010F01D128004A
:1008D0002EE0B145D7D100202AE0002C05D04A46B1
:1008E00021004046FFF7BCFE82465046C0B20028B9
:1008F00014D1C8F80C90D8F81410891ED8F810003C
:10090000814204D3D8F81000401EC8F8100098F8AF
:10091000040050F0010088F8040008E05046C0B21E
:10092000012802D15FF0FF3901E05FF0010948467C
:10093000BDE8F08770B403000A001C68D86A001D87
:100940001600760A6589B6FBF5F506683100061DC6
:10095000002901D1002008E08D4203D230684519FA
:10096000280002E06D1A301DEFE770BC70472DE9DA
:10097000F04105000E00D5F80080B6F5001F02D248
:1009800016F01F0F01D0022049E06E61AC68002C08
:1009900006D198F80000032802DBD8F824000400F0
:1009A000002C0BD131004909B8F80800814201D36D
:1009B000022034E0D8F82400E86120E0B8F80A10FA
:1009C0004FF4007041430F00BE4213D321002800B2
:1009D000FFF7D2FD040014F1010F01D101201EE048
:1009E000022C03D3D8F81400844201D3022016E06D
:1009F000F61BE9E721004046FFF7B0FDE861AC6176
:100A0000E869002801D1022009E0E86910EB5620CE
:100A1000E861F005C00D4044303028620020BDE898
:100A2000F0812DE9F84306000C003768D6F81480F1
:100A300018F12008F069002802D0B8F5001F01D392
:100A4000042079E05FEAC8506DD1F069401CF06184
:100A5000B069002808D1414649093889814262D3EA
:100A60000020F061042067E07889401E10EA582FCA
:100A700059D1B1693000FFF77FFD0500022D01D289
:100A8000022059E015F1010F01D1012054E07869ED
:100A9000854242D3002C03D10020F06104204BE0BA
:100AA000B1693000FFF7C6FE0500002D01D1072017
:100AB00042E0012D01D102203EE015F1010F01D1EC
:100AC000012039E03800FFF7ADFC002801D00120FB
:100AD00032E04FF40072002117F13000FFF7A8FB5D
:100AE0000020814629003800FFF738FDF862788938
:100AF00081450ED20120F8703800FFF793FC0028E2
:100B000001D0012018E019F10109F86A401CF862CF
:100B1000EDE7F86AB0EB0900F862B561290038002A
:100B2000FFF71CFDF061C6F814805FEAC850C00DE5
:100B30003844303030620020BDE8F2832DE9F041C6
:100B400004000D00266800212000FFF710FF0700B9
:100B50003800C0B2002822D100208046E169300070
:100B6000FFF78DFC07003800C0B2002817D1206ABB
:100B70000078E52803D0206A0078002804D118F115
:100B80000108A84502D10AE000208046012120008A
:100B9000FFF747FF07003800C0B20028DED038005A
:100BA000C0B2042801D1072007003800C0B2BDE858
:100BB000F08170B504000D0015F11A00FFF704FB79
:100BC00006002078032806D115F11400FFF7FCFA7F
:100BD00056EA00400600300070BD70B504000D00FC
:100BE0001600310089B215F11A00FFF700FB2078DA
:100BF000032806D13100090C89B215F11400FFF762
:100C0000F6FA70BDF8B505002E6800212800FFF740
:100C1000AEFE07003800C0B2002802D03800C0B2D3
:100C20002EE0E9693000FFF72AFC07003800C0B267
:100C3000002823D1286A007804002000C0B20028D0
:100C400002D10420070019E0286AC07A10F03F00A2
:100C5000A871286AC07A000707D40B2215F1240175
:100C6000286AFFF7ECFA002808D000212800FFF7D7
:100C7000D8FE07003800C0B20028D2D03800C0B279
:100C8000F2BD70B50400256801212000FFF756FF72
:100C900006003000C0B2002815D1E1692800FFF736
:100CA000EEFB06003000C0B200280CD1202200214B
:100CB000206AFFF7BDFA0B2214F12401206AFFF726
:100CC000A9FA0120E8703000C0B270BD2DE9F84FDC
:100CD00083460D002F681BF124080B22202140467B
:100CE000FFF7A6FA0024A1465FF0080A17F80900EA
:100CF000060019F101093000C0B2212848DB30009C
:100D0000C0B22F2803D03000C0B25C280BD117F836
:100D100009002F2803D017F809005C2802D119F127
:100D20000109F4E734E03000C0B22E2801D0544568
:100D30000DD3BAF10B0F03D03000C0B22E2801D072
:100D400006203DE0082004000B208246CEE730005C
:100D5000C0B2802805DBDFF8BC05F6B2304410F8DD
:100D6000806C3100C9B2DFF8B005FFF77AFA0028CD
:100D700001D0062024E03000C0B2612804DB30003E
:100D8000C0B27B2800DA203E08F80460641CADE79E
:100D900007EB09002860002C01D1062010E098F82C
:100DA0000000E52802D1052088F800003000C0B21C
:100DB000212801DA042000E0002088F80B00002040
:100DC000BDE8F28F2DE9F34104002700D7F8008039
:100DD000019800782F2803D0019800785C2803D16F
:100DE0000198401C0190F3E70020B860019800785A
:100DF000202808D2802084F82F0000212000FFF74F
:100E0000B6FD05002FE001A92000FFF75FFF0500F8
:100E10002800C0B2002826D12000FFF7F3FE05000D
:100E200094F82F0006002800C0B2002808D028003F
:100E3000C0B2042803D1700701D40520050012E0D8
:100E4000700710D4B879C00602D4052005000AE066
:100E50006069C005C00D404410F130014046FFF705
:100E6000A8FEB860CFE72800C0B2BDE8F68110B494
:100E700002005FF0FF30116800291CD011680B00E0
:100E80001978212904D319783A2901D05B1CF7E796
:100E900019783A290DD1146821783039641C0A294F
:100EA00006D29C4204D1002902D108005B1C1360C9
:100EB00001E00021080010BC704738B504000D00A7
:100EC0000020E0705FF0FF30E06229002000FFF7B3
:100ED000D6FA002801D004202CE004F22E20FFF7DF
:100EE00073F94AF65521884201D0032022E094F894
:100EF0003000E92807D094F83000EB2819D194F895
:100F00003200902815D114F16600FFF764F920F043
:100F10007F40DFF80814884201D100200AE014F174
:100F20008200FFF758F9DFF8F813884201D100205A
:100F300000E0022032BD00005252614172724161F4
:100F40002DE9F34F89B0170000210A980160099834
:100F5000FFF78DFF02900298002801D50B2081E158
:100F6000DFF8C013029851F82050002D01D10C2059
:100F700078E10A98056017F0FE078DF8017028786F
:100F800000280FD0687800F0D9FC0400E00709D4ED
:100F90009DF80100002803D0600701D50A2061E117
:100FA00000205FE10020287002986870687800F0E7
:100FB000D5FC8DF800009DF80000C00701D5032086
:100FC00050E19DF80100002805D09DF80000400781
:100FD00001D50A2046E1002421002800FFF76DFF1B
:100FE00081464846C0B202282ED10027042F13D2D2
:100FF0003801284410F5F770039003980079002811
:1010000004D003980830FFF7E6F800E0002005A9B7
:1010100041F827007F1CE9E70026002E00D0761E4D
:1010200005A850F826000400002C04D02100280058
:10103000FFF743FF00E0032081464846C0B2022884
:1010400002DB761C042EEBD34846C0B2042801D143
:10105000012007E14846C0B2022801DB0D2001E172
:1010600015F13B00FFF7B0F8B0F5007F01D00D207F
:10107000F8E015F14600FFF7A7F80700002F04D1AC
:1010800015F15400FFF7A7F80700AF6195F840008D
:10109000A870A878012804D0A878022801D00D20D3
:1010A000E0E0A8784743049795F83D006881688997
:1010B000002804D068896989491E084201D00D20A2
:1010C000D0E015F14100FFF77FF82881287A10F071
:1010D0000F0F01D00D20C5E015F14300FFF774F8A4
:1010E0000700002F04D115F15000FFF774F8070036
:1010F00015F13E00FFF768F88346584680B2002895
:1011000001D10D20AEE0049810FA8BF0298910EB84
:10111000111001900198874201D20D20A2E001999F
:10112000791A6889B1FBF0F8B8F1000F01D10D20F0
:1011300098E05FF0030A4FF6F670804501D2022076
:10114000824640F6F670804501D20120824618F1B1
:1011500002006861EC6114FA8BF0286201980019B2
:10116000A8625046C0B2032815D115F15A00FFF706
:101170002BF8002801D00D2074E02889002801D028
:101180000D206FE015F15C00FFF725F868626869D3
:101190005FEA800919E02889002801D10D2061E06B
:1011A000296A0498411869625046C0B2022803D1E6
:1011B00068695FEA400908E069690320414395F8DE
:1011C000149019F0010919EB5109A86909F2FF11EE
:1011D000B0EB512F01D20D2044E05FF0FF302861C9
:1011E0002869E860802028715046C0B203282DD1BC
:1011F00015F16000FEF7E8FF012827D1611C2800E7
:10120000FFF73DF9002821D10020287105F22E209A
:10121000FEF7DAFF4AF65521884217D115F1300062
:10122000FEF7D9FF4049884210D115F50570FEF749
:10123000D2FF3E49884209D115F50670FEF7CBFF73
:10124000286115F50770FEF7C6FFE86085F800A075
:1012500037490888401C08800888E8802800FFF784
:10126000D1F800200BB0BDE8F08F70B504000D0080
:101270000926002C13D02068002810D020680078A0
:1012800000280CD0A0882168C988884207D120682E
:10129000407800F053FBC00701D400200600300066
:1012A000C0B2002801D1206800E000202860300092
:1012B000C0B270BDF3B581B01500029800906846C9
:1012C000FFF7D5FD0600002E01D50B2021E0154FBC
:1012D00057F82640002C04D02000FFF793F8002098
:1012E00020700198002802D0002101980170019817
:1012F00047F826000198002803D02800C0B2012832
:1013000001D0002005E0002201A902A8FFF718FE85
:10131000C0B2FEBD545E0208AC74020846415400DF
:1013200046415433E09E0020525261417272416145
:101330007C9F00202DE9F24F8EB00400002C01D1DB
:10134000092038E112F03F0291464A46D2B269467E
:101350000EA8FFF7F5FD82465046C0B2002840F0C7
:101360002281009802900E9902A8FFF72BFD824679
:101370005046C0B2002810D19DF83700000602D5B3
:101380000620824609E019F0FE0F01D0012100E09D
:10139000002102A8FEF76FFF824619F01C0F62D0F1
:1013A0005046C0B2002810D05046C0B2042809D11F
:1013B000FEF79CFF002803D002A8FFF762FC00E0C4
:1013C0001220824659F008090CE09DF80E0010F03A
:1013D000110F02D00720824604E05FEA497001D570
:1013E000082082465046C0B2002850D15FEA0970FA
:1013F0004DD500F029FB834659460A980E30FEF77A
:10140000FDFE59460A981630FEF7F8FE20210A988C
:10141000C1720A990098FFF7CCFB050000220A99D7
:101420000098FFF7DAFB00210A981C30FEF7E6FE71
:1014300001210098C170002D29D00098C06A834610
:101440000022290002A8FFF79DF982465046C0B24B
:1014500000281CD159460098FFF711F88246691EF2
:101460000098C16013E05046C0B200280FD19DF82B
:101470000E00C00602D50420824608E05FEA8970AB
:1014800005D59DF80E00C00701D5072082465046BD
:10149000C0B2002818D15FEA097001D559F040099F
:1014A0000098C06A60620A98A06219F0FE0F01D02D
:1014B000012100E0002102A8FEF728FF2061206939
:1014C000002801D1022082465046C0B200286AD1CD
:1014D0000A990098FFF76DFBA0600A981C30FEF790
:1014E0007AFEE0600020E062009820600098C088EA
:1014F000A08084F8149000206075002020620020F5
:10150000A0614FF40072002114F13000FEF790FE4C
:101510005FEA896047D5E068002844D0E068A061B0
:10152000009841894FF4007041430E00A068070005
:10153000E06880465046C0B2002812D1464510D21D
:1015400039002000FFF718F80700022F01D202200F
:10155000824617F1010F01D101208246B8EB06083F
:10156000E8E7E7615046C0B200281CD15FEAC850E6
:1015700019D039000098FEF7F1FF0190002802D140
:10158000022082460FE0019810EB582020620123D0
:10159000226A14F130010098407800F0FBF900282D
:1015A00001D0012082465046C0B2002801D0002060
:1015B00020605046C0B20FB0BDE8F08F2DE9FA4F61
:1015C00083B083461400DDF80C900021049801607C
:1015D00069465846FFF749FE82465046C0B2002889
:1015E00005D19BF815008246C0B2002802D05046B3
:1015F000C0B2ECE09BF81400C00701D40720E6E07D
:10160000DBF80C10DBF81800091A02910298A042CE
:1016100001D202980400002C00F0D880DBF81800FA
:10162000C00540F0AE80DBF8181000984089401EDD
:1016300010EA512001900198002829D1DBF8180008
:10164000002803D1DBF80800060010E0DBF82C00CE
:10165000002806D0DBF818105846FFF76BF9060093
:1016600005E0DBF81C105846FEF786FF0600022E48
:1016700004D202208BF815000220A8E016F1010F19
:1016800004D101208BF815000120A0E0CBF81C60EC
:10169000DBF81C100098FEF761FF0100002904D15F
:1016A00002208BF81500022091E0019F7F18200096
:1016B000400A0500002D35D000984089019969182D
:1016C000884204D2009841890198091A0D002B0024
:1016D0003A0049460098407800F05CF9002804D0B0
:1016E00001208BF81500012071E09BF81400000622
:1016F00012D5DBF82000C01BA8420DD24FF40072B7
:101700001BF13001DBF82030DB1B4FF4007043434A
:1017100009EB0300FEF77EFD4FF4007000FB05F0BF
:10172000804643E0DBF82000B84228D09BF8140044
:10173000000615D50123DBF820201BF130010098AD
:10174000407800F041F9002804D001208BF8150002
:1017500001203CE09BF8140010F07F008BF814008F
:1017600001233A001BF130010098407800F012F993
:10177000002804D001208BF81500012027E0CBF8C9
:101780002070DBF81800C005C00DD0F50070804651
:10179000444500D2A0464246DBF81800C005C00D03
:1017A000584410F130014846FEF734FDC144DBF8DF
:1017B000180018EB0000CBF818000498006818EB2C
:1017C000000004990860B4EB080424E7002005B089
:1017D000BDE8F08FF8B5040069462000FFF745FD2D
:1017E00007003800C0B2002846D1207D400643D50E
:1017F000207D00060FD50123226A14F130010098E4
:10180000407800F0E1F8002801D0012036E0207D8A
:1018100010F07F00207500F017F90500616A00984C
:10182000FEF72DFE07003800C0B2002824D1A06AC0
:101830000600F07A50F02000F072A26831002068B3
:10184000FFF7CBF9E16816F11C00FEF7D7FC290081
:1018500016F11600FEF7D2FC002116F11200FEF779
:10186000C6FC01210098C1700098FEF729FE070010
:10187000207D10F0BF0020753800C0B2F2BD38B531
:1018800004002000FFF7A6FF05002800C0B20028D2
:1018900012D169462000FFF7E8FC05002800C0B21D
:1018A000002809D12069FEF787FD05002800C0B295
:1018B000002801D1002020602800C0B232BDF0B461
:1018C0000246106895681318506803EB5004C0076F
:1018D00048BF4D44A3422DD013F8016B16F003000E
:1018E00004BF13F8010BC01C31090F2907D113F8ED
:1018F000011B0F3103E013F8017B05F8017B401E4B
:10190000F9D10029E6D013F8010BC6F38107032FA4
:1019100008BF13F8017B00EB072040422844002653
:10192000B71E8F421EBF10F8017B05F8017B761CA5
:10193000F6D1CFE7F0BC02F10C00704710B50400FF
:1019400039492000C0B20844007A2200D2B201EB2B
:101950008201496849688847C0B210BD38B50400A3
:10196000002531492000C0B2085C00280FD10122B7
:101970002000C0B20A542000C0B20844007A2200FD
:10198000D2B201EB82014968096888470500280046
:10199000C0B232BDF8B504000D0016001F00DFF81C
:1019A00088C03B00320029002000C0B26044007AA9
:1019B000A6465FFA8EFE0CEB8E0CDCF804C0DCF859
:1019C00008C0E047C0B2F2BDF8B504000D00160033
:1019D0001F00DFF854C03B00320029002000C0B2D5
:1019E0006044007AA6465FFA8EFE0CEB8E0CDCF8A3
:1019F00004C0DCF80CC0E047C0B2F2BDF8B504008A
:101A00000D001600084B32002900C9B22000C0B2F8
:101A10001844007A2700FFB203EB87035B681B6959
:101A20009847C0B2F2BD00004C9E002080B503492B
:101A3000034800F02FF80349087001BDDC9E002028
:101A400048740208889F002000207047F0B404000A
:101A500001200025144E737A002B18D10027737AC9
:101A6000F754737A06EB83035C60737A33441A721B
:101A7000777A7B1C73723D0015F130030B703A23AB
:101A80004B702F238B700023CB7000231800C0B243
:101A9000F0BC704738B505000C000022210028007A
:101AA000FFF7D4FF32BD00004C9E00200003002051
:101AB0000B0000000B0000006400000000000000AC
:101AC0000F000000160016000B000400702900082B
:101AD000F01B000800000000160016000B000400B8
:101AE0007C280008F01B000800000000160016000B
:101AF0000B00040088270008F01B0008000000000D
:101B0000160016000B00040094260008F01B0008C5
:101B100000000000160016000B000400A0250008BD
:101B2000F01B000800000000160016000B00040067
:101B3000AC240008F01B000800000000160016008E
:101B40000B000400B8230008F01B00080000000090
:101B5000160016000B000400C4220008F01B000849
:101B600000000000160016000B000400D021000841
:101B7000F01B000800000000160016000B00040017
:101B8000DC200008F01B0008000000001600160012
:101B90000B000400E81F0008F01B00080000000014
:101BA000160016000B000400F41E0008F01B0008CD
:101BB00000000000160016000B000400001E0008C4
:101BC000F01B000800000000160016000B000400C7
:101BD0000C1D0008F01B0008000000001600160095
:101BE0000B000400181C0008F01B00080000000097
:101BF0000700000001000000FC1B00080000FFFFC0
:101C0000CCCCCCFF000000FF999900FFFFFFFFFF45
:101C1000999999FFFFFF00FF0000000220000000DB
:101C20000000000000002320000000000000000071
:101C300002332000000000000000002333120000E7
:101C400000000000000233311120000000000000FD
:101C5000236311111200000000000236311111122D
:101C600000000000002363111112120000000000A8
:101C700033314421212200000000000005124212ED
:101C800012000000000000005124242155552000BE
:101C90000000000222224111111200000000000089
:101CA0000054111111200000000000005411111106
:101CB0001222000000000054111111233200000014
:101CC0000000544111123330000000000051441153
:101CD00023330000000000000514423330000000F0
:101CE000000000005123630000000000000000021B
:101CF0003630000000000000000003630000000018
:101D000000000000000330000000000000000000A0
:101D100000000000000000000000000000000000C3
:101D200000000000000000000000000000000000B3
:101D30000000000000000000330000000000000070
:101D4000000032332555500000000555533236212E
:101D50001112000000511113623621444120000588
:101D600014444362362144411200514444436236D4
:101D70002144411125144111136233211111111114
:101D8000111111133233212121212211111113328A
:101D9000332212121200211111133233212121207A
:101DA000000211111332332212120000002111130C
:101DB00032332222200000000222223222000000C0
:101DC00000000000000022000000000000000000F1
:101DD0000000000000000000000000000000000003
:101DE00000000000000000000000000000000000F3
:101DF00000000000000000000000000000000000E3
:101E000000000000000003200000000000000000AF
:101E10000003320000000000000000000363200007
:101E200000000000000000513632000000000000F9
:101E300000051443632000000000000051441133EA
:101E40003200000000000054411113332000000054
:101E50000000541111113332000000000054111120
:101E60001112220000000000541111112000000086
:101E70000555554111111200000000514444112232
:101E80002220000000051441111200000000003360
:101E900021242111120000000000363242121112DA
:101EA0000000000000036321212122000000000047
:101EB000003632121212000000000000033321210C
:101EC000200000000000000033321200000000007B
:101ED0000000000333200000000000000000003379
:101EE00020000000000000000000022000000000B0
:101EF00000000000000003333333333332000000AE
:101F000000033666633333320000000000222222D1
:101F100022222000000000005111111111200000A8
:101F20000000005144111111200000000000514434
:101F30001111112000000000005144111111200066
:101F4000000000000211111112000000000000004A
:101F500021111120000000000000000211120000F9
:101F60000000000000000021200000000000000030
:101F700000005120000000000000000005111200C8
:101F8000000000000000005141112000000000008E
:101F9000000514411112000000000000514412110C
:101FA00011200000000000514421211120000000F8
:101FB00000005142121211200000000000512421A3
:101FC0002121200000000000333333333320000090
:101FD0000000033666633333320000000002222221
:101FE0002222222200000000000003333333333367
:101FF0003200000000033666633333320000000015
:102000000022222222222000000000005111111182
:1020100011200000000000514411111120000000A7
:102020000000514411111120000000000051441122
:102030001111200000000000021111111200000017
:10204000000000002111112000000000000000022B
:10205000111200000000000000000021200000001C
:1020600000000000000051200000000000000000FF
:102070000511120000000000000000514211200074
:1020800000000000000514411112000000000000D3
:10209000514412111120000000000051442111117F
:1020A0002000000000005142121211200000000028
:1020B000005124212121200000000000333333335C
:1020C0003320000000000336666333333200000023
:1020D00000022222222222220000000000000333FC
:1020E0003333333332000000000336666333333258
:1020F0000000000000222222222220000000000016
:102100005111111111200000000000514411111152
:1021100020000000000051441111112000000000B7
:102120000051441111112000000000000211111192
:10213000120000000000000021111120000000002A
:102140000000000212120000000000000000002148
:1021500020000000000000000000512000000000EE
:1021600000000000051112000000000000000051F6
:10217000421120000000000000051441111200006F
:102180000000000051441211112000000000005115
:1021900044111111200000000000514212121120C0
:1021A0000000000000512421212120000000000037
:1021B0003333333333200000000003366663333398
:1021C000320000000002222222222222000000000F
:1021D000000003333333333332000000000336662C
:1021E000633333320000000000222222222220002A
:1021F00000000000511111111120000000000051D9
:10220000441111112000000000005144111111204F
:1022100000000000005144111111200000000000D6
:1022200002111111120000000000000021211120F4
:102230000000000000000002121200000000000078
:1022400000000021200000000000000000005120DC
:102250000000000000000000051112000000000056
:102260000000005142112000000000000005144150
:102270001112000000000000514412111120000052
:1022800000000051441111112000000000005142D3
:1022900012111120000000000051242121212000F2
:1022A00000000000333333333320000000000336D6
:1022B00066633333320000000002222222222222EF
:1022C00000000000000003333333333332000000DA
:1022D00000033666633333320000000000222222FE
:1022E00022222000000000005111111111200000D5
:1022F0000000005144111111200000000000514461
:102300001111112000000000005144111111200092
:102310000000000002111111120000000000000076
:102320002121212000000000000000021212000004
:10233000000000000000002120000000000000005C
:1023400000005120000000000000000005111200F4
:1023500000000000000000514211200000000000B9
:102360000005144111120000000000005144121138
:102370001120000000000051441111112000000044
:1023800000005144121111200000000000512421CE
:1023900021212000000000003333333333200000BC
:1023A000000003366663333332000000000222224D
:1023B0002222222200000000000003333333333393
:1023C0003200000000033666633333320000000041
:1023D00000222222222220000000000051111111AF
:1023E00011200000000000514411111120000000D4
:1023F000000051441111112000000000005144114F
:102400001111200000000000021211111200000042
:102410000000000021212120000000000000000237
:102420001212000000000000000000212000000047
:10243000000000000000512000000000000000002B
:1024400005111200000000000000005142112000A0
:1024500000000000000514411112000000000000FF
:1024600051441211112000000000005144111111BB
:102470002000000000005144121111200000000053
:102480000051242121112000000000003333333398
:10249000332000000000033666633333320000004F
:1024A0000002222222222222000000000000033328
:1024B0003333333332000000000336666333333284
:1024C0000000000000222222222220000000000042
:1024D000511111111120000000000051441111117F
:1024E00020000000000051441111112000000000E4
:1024F00000514411111120000000000002121112BD
:102500001200000000000000212121200000000036
:102510000000000212120000000000000000002174
:10252000200000000000000000005120000000001A
:102530000000000005111200000000000000005122
:10254000421120000000000000051441111200009B
:102550000000000051441211112000000000005141
:1025600044111111200000000000514412111120EB
:102570000000000000514421211120000000000053
:1025800033333333332000000000033666633333C4
:10259000320000000002222222222222000000003B
:1025A0000000033333333333320000000003366658
:1025B0006333333200000000002222222222200056
:1025C0000000000051111111112000000000005105
:1025D000441111112000000000005144111111207C
:1025E0000000000000514411111120000000000003
:1025F000021212121200000000000000212121200E
:1026000000000000000000021212000000000000A4
:102610000000002120000000000000000000512008
:102620000000000000000000051112000000000082
:10263000000000514211200000000000000514417C
:10264000111200000000000051441211112000007E
:1026500000000051441111112000000000005144FD
:10266000121111200000000000514421111120001E
:102670000000000033333333332000000000033602
:10268000666333333200000000022222222222221B
:102690000000000000000333333333333200000006
:1026A000000336666333333200000000002222222A
:1026B0002222200000000000511111111120000001
:1026C000000000514411111120000000000051448D
:1026D00011111120000000000051241111112000DF
:1026E00000000000021212121200000000000000A0
:1026F0002121212000000000000000021212000031
:102700000000000000000021200000000000000088
:102710000000312000000000000000000511120040
:1027200000000000000000514211200000000000E5
:102730000005144111120000000000005144121164
:102740001120000000000051441111112000000070
:1027500000005144121111200000000000514411EA
:102760001111200000000000333333333320000008
:102770000000033666633333320000000002222279
:1027800022222222000000000000033333333333BF
:10279000320000000003366663333332000000006D
:1027A00000222222222220000000000051111111DB
:1027B0001120000000000051441111112000000000
:1027C000000051441111112000000000005124119B
:1027D000112120000000000002121212120000005D
:1027E0000000000021212120000000000000000264
:1027F0001212000000000000000000212000000074
:102800000000000000005120000000000000000057
:1028100005111200000000000000005142112000CC
:10282000000000000005144111120000000000002B
:1028300051441211112000000000005144111111E7
:102840002000000000005144111111200000000080
:1028500000514411111120000000000033333333C4
:10286000332000000000033666633333320000007B
:102870000002222222222222000000000000033354
:1028800033333333320000000003366663333332B0
:10289000000000000022222222222000000000006E
:1028A00051111111112000000000005144111111AB
:1028B0002000000000005144111111200000000010
:1028C00000512421112120000000000002121212E8
:1028D0001200000000000000212121200000000063
:1028E00000000002121200000000000000000021A1
:1028F0002000000000000000000051200000000047
:10290000000000000511120000000000000000514E
:1029100042112000000000000005144111120000C7
:10292000000000005144111111200000000000516E
:102930004411111120000000000051441111112018
:10294000000000000051441111112000000000009F
:1029500033333333332000000000033666633333F0
:102960003200000000022222222222220000000067
:102970000000033333333333320000000003366684
:102980006333333200000000002222222222200082
:102990000000000051111111112000000000005131
:1029A00044111111200000000000514411111120A8
:1029B000000000000051242121212000000000001F
:1029C000021212121200000000000000212121203A
:1029D00000000000000000021212000000000000D1
:1029E0000000002120000000000000000000512035
:1029F00000000000000000000511120000000000AF
:102A000000000051411120000000000000051441A9
:102A100011120000000000005144111111200000AB
:102A20000000005144111111200000000000514429
:102A3000111111200000000000514411111120005B
:102A4000000000003333333333200000000003362E
:102A50006663333332000000000222222222222247
:102A600000000000702A00080800000008000000B4
:102A70001100110005000200A42A00081C2F000804
:102A800000000000902A0008080000000800000074
:102A90001100110005000200A42A0008342F0008CC
:102AA0000000000000019000000001900000000103
:102AB00090000000019000000001900000000190D3
:102AC0000000040190040019559559006AAAAAAAA9
:102AD0004019559559000401900400000190000030
:102AE0000001900000000190000000019000000033
:102AF000019000000001900000000000082B000879
:102B000005000000050000000B000B0003000200A0
:102B10003C2B00081C2F000800000000282B000898
:102B200005000000050000000B000B000300020080
:102B30003C2B0008342F0008000000000054000067
:102B400064000064000064005565546A9AA45565E9
:102B500054006400006400006400005400000000A1
:102B60006C2B00080A0000000A0000001500150088
:102B700006000200A02B00081C2F00080000000027
:102B80008C2B00080A0000000A0000001500150048
:102B900006000200A02B0008342F000800000000EF
:102BA00000001500000000001900000000001900DE
:102BB00000000000190000000000190000000000E3
:102BC00019000000000019000000000019000000BA
:102BD0000000190000005555595555406AAAA6AA8B
:102BE000AA405555595555400000190000000000F5
:102BF000190000000000190000000000190000008A
:102C00000000190000000000190000000000190079
:102C10000000000019000000000015000000000086
:102C20002C2C00080F0000000F0000001F001F00E8
:102C300008000200602C00081C2F000800000000A3
:102C40004C2C00080F0000000F0000001F001F00A8
:102C500008000200602C0008342F0008000000006B
:102C600000000005400000000000000640000000D9
:102C700000000006400000000000000640000000C8
:102C800000000006400000000000000640000000B8
:102C900000000006400000000000000640000000A8
:102CA0000000000640000000000000064000000098
:102CB0000000000640000000000000064000000088
:102CC0000000000640000000000000064000000078
:102CD00055555556555555546AAAAAA9AAAAAAA443
:102CE00055555556555555540000000640000000F6
:102CF0000000000640000000000000064000000048
:102D00000000000640000000000000064000000037
:102D10000000000640000000000000064000000027
:102D20000000000640000000000000064000000017
:102D30000000000640000000000000064000000007
:102D400000000006400000000000000640000000F7
:102D50000000000540000000642D00080000000095
:102D60000000000009000F0003000200982D000879
:102D70001C2F000800000000842D00080000000047
:102D80000000000009000F0003000200982D000859
:102D9000342F0008000000004000005000006400D4
:102DA000006900006A40006A90006AA4006AA900F5
:102DB0006A954066900051A40041A400006900009B
:102DC0006900001400000000D42D0008000000007D
:102DD000000000000C00140003000200082E000890
:102DE0001C2F000800000000F42D00080000000067
:102DF000000000000C00140003000200082E000870
:102E0000342F000800000000400000500000640063
:102E1000006900006A40006A90006AA4006AA90084
:102E20006AAA406AAA906AAAA46AA95569A9006414
:102E30006A40506A40401A90001A900006A40006AA
:102E4000A4000150502E0008000000000000000007
:102E500012001E0005000200842E00081C2F00082E
:102E600000000000702E00080000000000000000BC
:102E700012001E0005000200842E0008342F0008F6
:102E8000000000004000000000500000000064004E
:102E900000000069000000006A400000006A900025
:102EA00000006AA40000006AA90000006AAA4000AD
:102EB000006AAA9000006AAAA400006AAAA90000F9
:102EC0006AAAAA40006AAAAA90006AAAAAA4006AEA
:102ED000AAAAA9006AAAAAAA406AAA9555506A9AFB
:102EE0009000006A46A400006906A400006401A9DD
:102EF00000005001A9000040006A400000006A4044
:102F00000000001A900000001A9000000006A400C3
:102F1000000006A4000000015000000003000000B3
:102F200001000000282F00080000FFFFFFFFFFFF47
:102F3000000000FF0300000001000000402F000817
:102F40000000FFFF000000FFFFFFFFFF2DE9FE4F25
:102F500082B005000026BDF8080000F0FF00ADF8C3
:102F60000600BDF8080010F47F40ADF8040000240E
:102F700001F0F3F803224FF481712800C0B200F091
:102F8000C9FF56FA80F8002240F617012800C0B2A7
:102F900000F0C0FF58FA80FA00224FF48171280037
:102FA000C0B200F0B7FF5AFA80F96C22392128002C
:102FB000C0B200F0AFFF59FA80F7BDF80400002856
:102FC00008D0132201212800C0B200F0A3FF57FA55
:102FD00080F607E0032201212800C0B200F09AFF2A
:102FE00057FA80F6322001F0FDF8BDF806000028FF
:102FF00000F0FE800121DFF8600C0160BDF80600E2
:10300000012805D0C0F0C58003285FD02FD3C0E0D1
:1030100040F60C4205212800C0B200F07BFF56FAB2
:1030200080F7002240F201612800C0B200F072FF78
:1030300057FA80F8002240F202612800C0B200F086
:1030400069FF58FA80F9022240F204612800C0B2F8
:1030500000F060FF59FA80FA022240F20561280070
:10306000C0B200F057FF5AFA80F00600C4E040F208
:10307000033205212800C0B200F04CFF56FA80F759
:10308000012240F201612800C0B200F043FF57FA6C
:1030900080F8012240F202612800C0B200F03AFF3D
:1030A00058FA80F9002240F204612800C0B200F012
:1030B00031FF59FA80FA002240F205612800C0B2BF
:1030C00000F028FF5AFA80F0060095E0BDF80400F1
:1030D000B0F5006F2ED140F60F7205212800C0B266
:1030E00000F018FF56FA80F7032240F20161280031
:1030F000C0B200F00FFF57FA80F8032240F20261DD
:103100002800C0B200F006FF58FA80F9032240F20E
:1031100004612800C0B200F0FDFE59FA80FA0322D3
:1031200040F205612800C0B200F0F4FE5AFA80F0C7
:1031300006002DE040F60F7205212800C0B200F015
:10314000E9FE56FA80F7012240F201612800C0B280
:1031500000F0E0FE57FA80F8012240F202612800F8
:10316000C0B200F0D7FE58FA80F9022240F20461A2
:103170002800C0B200F0CEFE59FA80FA022240F2D6
:1031800005612800C0B200F0C5FE5AFA80F00600C2
:1031900032E040F2033205212800C0B200F0BAFE4E
:1031A00056FA80F7012240F201612800C0B200F017
:1031B000B1FE57FA80F8012240F202612800C0B245
:1031C00000F0A8FE58FA80F9002240F204612800BD
:1031D000C0B200F09FFE59FA80FA002240F2056169
:1031E0002800C0B200F096FE5AFA80F0060003E014
:1031F0000021DFF8640A0160BDF80400002800F037
:1032000036810121DFF8FC0C0160BDF80400B0F547
:10321000807F00F09980B0F5007F07D0B0F5407F47
:103220003CD0B0F5006F00F0C7801EE14FF4436260
:1032300004212800C0B200F06DFE56FA80FBDB22AC
:103240004FF48A612800C0B200F064FE5BFA80F798
:103250004FF4C04202212800C0B200F05BFE57FAD2
:1032600080F802224FF4C1612800C0B200F052FE83
:1032700058FA80F9022240F209612800C0B200F039
:1032800049FE59FA80FA0E224FF4E0612800C0B2DC
:1032900000F040FE5AFA80F00600ECE011222821EE
:1032A0002800C0B200F036FE56FA80F00090009F71
:1032B000352229212800C0B200F02CFE57FA80F0F8
:1032C0000090009F35222A212800C0B200F022FE83
:1032D00057FA80F00090009F40F20332042128004A
:1032E000C0B200F017FE57FA80FBDB224FF4886172
:1032F0002800C0B200F00EFE5BFA80F746F25032B2
:1033000002212800C0B200F005FE57FA80F8022220
:1033100040F206612800C0B200F0FCFD58FA80F9C6
:10332000022240F207612800C0B200F0F3FD59FA12
:1033300080FA0D224FF4E0612800C0B200F0EAFDEF
:103340005AFA80F0060096E04FF4437204212800F8
:10335000C0B200F0DFFD56FA80FBDB224FF488613B
:103360002800C0B200F0D6FD5BFA80F746F250327A
:1033700002212800C0B200F0CDFD57FA80F80222E9
:1033800040F206612800C0B200F0C4FD58FA80F98E
:10339000022240F207612800C0B200F0BBFD59FADA
:1033A00080FA0D224FF4E0612800C0B200F0B2FDB7
:1033B0005AFA80F006005EE040F63C7204212800D4
:1033C000C0B200F0A7FD56FA80F00090009FDB220B
:1033D0004FF48A612800C0B200F09CFD57FA80F0DB
:1033E0000090009FDB224FF488612800C0B200F0FB
:1033F00091FD57FA80F00090009F46F2A032022122
:103400002800C0B200F086FD57FA80FB022240F28D
:1034100006612800C0B200F07DFD5BFA80F7022251
:1034200040F207612800C0B200F074FD57FA80F83E
:1034300002224FF4C1612800C0B200F06BFD58FABF
:1034400080F9022240F209612800C0B200F062FD5A
:1034500059FA80FA0D224FF4E0612800C0B200F062
:1034600059FD5AFA80F0060005E0761C03E00020C2
:10347000DFF8901A08600498B0F5FA5F1AD042F6A7
:103480001131884248D0B0F57A5F1DD045F22261F3
:1034900088424BD0B0F5FA4F20D04AF644418842DA
:1034A0004ED04BF68031884222D0DFF85C1A884239
:1034B00028D04FE003224FF404712800C0B200F07E
:1034C00029FD56FA80F74EE033224FF404712800AC
:1034D000C0B200F01FFD56FA80F744E063224FF4BB
:1034E00004712800C0B200F015FD56FA80F73AE0EA
:1034F00083224FF404712800C0B200F00BFD56FA8D
:1035000080F730E0A3224FF404712800C0B200F02D
:1035100001FD56FA80F726E013224FF404712800CB
:10352000C0B200F0F7FC56FA80F71CE043224FF4DB
:1035300004712800C0B200F0EDFC56FA80F712E0EA
:1035400073224FF404712800C0B200F0E3FC56FA75
:1035500080F708E083224FF404712800C0B200F025
:10356000D9FC56FA80F7BDF80400B0F5006F0AD117
:1035700044F218024FF440712800C0B200F0CAFCB7
:1035800057FA80F609E044F210024FF44071280027
:10359000C0B200F0BFFC57FA80F6002240F20231C0
:1035A0002800C0B200F0B6FC56FA80F90A224FF4A7
:1035B00002712800C0B200F0ADFC59FA80F8012277
:1035C0004FF400712800C0B200F0A4FC58FA80F754
:1035D000BDF80600002800F02281BDF80600022890
:1035E0003FD14FF480722D212800C0B200F092FC30
:1035F00057FA80F94FF480722E212800C0B200F0F3
:1036000089FC59FA80F6DFF8048998F80000002850
:1036100011D04FF401424FF488712800C0B200F07D
:1036200079FC56FA80F9002088F800004FF4967073
:1036300000F0D8FD0CE048F208124FF48871280021
:10364000C0B200F067FC56FA80F9322000F0CAFDE3
:1036500000224FF484612800C0B200F05BFC59FAEC
:1036600080F74FF4407203212800C0B200F052FCF2
:1036700057FA80FB002222212800C0B200F04AFC49
:103680005BFA80F6002223212800C0B200F042FC41
:1036900056FA80F94FF4407236212800C0B200F08B
:1036A00039FC59FA80FA43F2030201212800C0B222
:1036B00000F030FC5AFA80F8BDF80400B0F5006F55
:1036C00009D140F2052251212800C0B200F022FCAD
:1036D00058FA80F607E0052251212800C0B200F018
:1036E00019FC58FA80F644F44C5454F003042200B8
:1036F00092B201212800C0B200F00CFC56FA80F012
:103700000090009F222260212800C0B200F002FC3D
:1037100057FA80F00090009F49F625724C2128004E
:10372000C0B200F0F7FB57FA80F000900F2000F0D5
:1037300059FD009F01222D212800C0B200F0EAFBB4
:1037400057FA80F00090009F01222E212800C0B27D
:1037500000F0E0FB57FA80F00090009F4FF44C72AD
:1037600003212800C0B200F0D5FB57FA80F000908A
:10377000009F332254212800C0B200F0CBFB57FA3F
:1037800080F0009040F2011000F02CFD009FEE222E
:1037900060212800C0B200F0BDFB57FA80F0009015
:1037A000009FC0224FF4C2612800C0B200F0B2FBFB
:1037B00057FA80F00090009FC02240F2116128006B
:1037C000C0B200F0A7FB57FA80FB10224FF48461CF
:1037D0002800C0B200F09EFB5BFA80F8C02240F2E5
:1037E00012612800C0B200F095FB58FA80F9C0229F
:1037F00040F213612800C0B200F08CFB59FA80FA45
:10380000102240F222412800C0B200F083FB5AFA95
:1038100080F79DF80C10280080B200F010F9BDF878
:103820000400002800F08480BDF80400B0F5807F1B
:1038300004D0BDF80400B0F5007F1FD154F013048C
:10384000220092B201212800C0B200F063FB57FAB7
:1038500080F602224FF4C4612800C0B200F05AFB87
:1038600056FA80F84FF4605240F211412800C0B27D
:1038700000F050FB58FA80F0070053E0BDF8040058
:10388000B0F5006F29D154F01304220092B2012147
:103890002800C0B200F03EFB57FA80F602224FF437
:1038A000C4612800C0B200F035FB56FA80F84FF42E
:1038B000C0524FF482612800C0B200F02BFB58FACE
:1038C00080F94FF4C05240F211412800C0B200F01C
:1038D00021FB59FA80F0070024E0BDF80400B0F5A0
:1038E000407F04D0BDF80400B0F5806F1AD10B22E0
:1038F00018212800C0B200F00DFB57FA80F60B2209
:103900001A212800C0B200F005FB56FA80F84FF4E7
:10391000C0524FF482612800C0B200F0FBFA58FA9E
:1039200080F007009DF80C10280080B200F087F8A6
:10393000380005B0BDE8F08F80B500F013FC01BD84
:1039400010B5040000F009FC00212000C0B200F016
:1039500028FC10BDF8B507000C001500002600215A
:10396000380080B200F043F98019F2BD70B506004E
:1039700000240121300080B200F039F905002D1932
:10398000012202213000C0B200F0C4FA55FA80F0E2
:1039900070BD38B5050000240021280080B200F079
:1039A00026F9001932BD2DE9F24F04000025AA4E78
:1039B0003068002840D00121200080B200F017F9C3
:1039C000401905000098022836D04FF400724FF4D9
:1039D00084612000C0B200F09DFA55FA80FB4FF4DC
:1039E000007240F222412000C0B200F093FA5BFA6C
:1039F00080F700222D212000C0B200F08BFA57FA88
:103A000080F800222E212000C0B200F083FA58FA7C
:103A100080F9002205212000C0B200F07BFA59FA9B
:103A200080FA002200212000C0B200F073FA5AFA96
:103A300080F00500002030602800BDE8F28F2DE9FD
:103A4000F84F06000C0000252000C0B2652801DBFD
:103A5000642706E02100C9B23F204143642091FB66
:103A6000F0F77D480068002877D03800C0B23F28C2
:103A70002EDB0021300080B200F0B9F8804618EB50
:103A8000050840F27F194A461C213000C0B200F000
:103A900041FA58FA80F00090DDF800A04A461D2156
:103AA0003000C0B200F036FA5AFA80FB4A462621AE
:103AB0003000C0B200F02EFA5BFA80FA4A462721A5
:103AC0003000C0B200F026FA5AFA80F0050044E057
:103AD0002000C0B2002807D10121300080B200F0E0
:103AE00086F84019050038E00021300080B200F06F
:103AF0007EF883461BEB050B3A00D2B252F4A0725B
:103B000092B21C213000C0B200F004FA5BFA80F8D7
:103B10003A00D2B252F4A07292B21D213000C0B26B
:103B200000F0F8F958FA80F93A00D2B252F4A072D3
:103B300092B226213000C0B200F0ECF959FA80FAB6
:103B40003A00D2B252F4A07292B227213000C0B231
:103B500000F0E0F95AFA80F00500DFF8A8030068E9
:103B6000002841D02000C0B2642801DBEF2706E026
:103B70002100C9B2F0204143642091FBF0F73A00E4
:103B8000D2B252F4807292B24FF480613000C0B26F
:103B900000F0C0F955FA80F83A00D2B252F48072BF
:103BA00092B240F201413000C0B200F0B3F958FACD
:103BB00080F93A00D2B252F4807292B240F20441DB
:103BC0003000C0B200F0A6F959FA80FA3A00D2B239
:103BD00052F4807292B240F205413000C0B200F05F
:103BE00099F95AFA80F005002800BDE8F28FF8B57F
:103BF00004000D0000261848006800282AD0012D76
:103C000015D14FF400724FF484612000C0B200F06F
:103C100081F956FA80F74FF4007240F222412000F9
:103C2000C0B200F077F957FA80F0060012E01022D7
:103C30004FF484612000C0B200F06CF956FA80F7AE
:103C4000102240F222412000C0B200F063F957FA7E
:103C500080F006003000F2BD009F00202DE9F04703
:103C600082460C0000252000C0B2012805D0C0F01B
:103C70008E8003285DD02ED389E040F60C420521CA
:103C80005046C0B200F046F955FA80F9002240F2E1
:103C900001615046C0B200F03DF959FA80F60022A9
:103CA00040F202615046C0B200F034F956FA80F793
:103CB000022240F204615046C0B200F02BF957FADC
:103CC00080F8022240F205615046C0B200F022F9AD
:103CD00058FA80F088E040F2033205215046C0B225
:103CE00000F018F955FA80F9012240F201615046BE
:103CF000C0B200F00FF959FA80F6012240F20261D9
:103D00005046C0B200F006F956FA80F7002240F2A1
:103D100004615046C0B200F0FDF857FA80F8002266
:103D200040F205615046C0B200F0F4F858FA80F055
:103D30005AE040F60F7205215046C0B200F0EAF892
:103D400055FA80F6012240F201615046C0B200F0FF
:103D5000E1F856FA80F7012240F202615046C0B203
:103D600000F0D8F857FA80F8022240F20461504679
:103D7000C0B200F0CFF858FA80F9022240F2056193
:103D80005046C0B200F0C6F859FA80F02CE040F27C
:103D9000033205215046C0B200F0BCF855FA80F954
:103DA000012240F201615046C0B200F0B3F859FA66
:103DB00080F6012240F202615046C0B200F0AAF83B
:103DC00056FA80F7002240F204615046C0B200F07B
:103DD000A1F857FA80F8002240F205615046C0B2BF
:103DE00000F098F858FA80F0BDE8F08770B504004C
:103DF0000D0000262900B1F5FA5F19D042F6113006
:103E0000814247D0B1F57A5F1CD045F222608142F1
:103E10004AD0B1F5FA4F1FD04AF6444081424DD006
:103E20004BF68030814221D03748814228D04FE084
:103E300003224FF404712000C0B200F06BF856FA70
:103E400080F04EE033224FF404712000C0B200F045
:103E500061F856FA80F044E063224FF404712000C8
:103E6000C0B200F057F856FA80F03AE083224FF4DF
:103E700004712000C0B200F04DF856FA80F030E036
:103E8000A3224FF404712000C0B200F043F856FAA8
:103E900080F026E013224FF404712000C0B200F03D
:103EA00039F856FA80F01CE043224FF404712000E8
:103EB000C0B200F02FF856FA80F012E073224FF4EF
:103EC00004712000C0B200F025F856FA80F008E036
:103ED00083224FF404712000C0B200F01BF856FAA0
:103EE00080F070BD38B504000025002200212000BC
:103EF000C0B200F00FF8002205490A600022014913
:103F00000A6032BD049F00200077010006040020F3
:103F1000009F0020F8B507000C00150000262A00BD
:103F200092B2210089B23800C0B200F01CF9300012
:103F3000C0B2F2BD38B586B00400DFF8B8028442E2
:103F400047D1DFF8AC12086850F0800008600868BC
:103F500010F08000059005988020009012200190BC
:103F6000002002900220039004200490DFF8885281
:103F70006946280000F04EF94FF4807000906946C1
:103F8000280000F047F9DFF87412086850F40000C8
:103F90000860086810F4000005900598DFF86002DA
:103FA000016851F400010160016831F40001016011
:103FB00000220F21482000F0F3FB482000F005FC10
:103FC00000220F21492000F0EBFB492000F0FDFB0F
:103FD00043E08749086850F002000860086810F064
:103FE0000200059005984FF4807000901220019017
:103FF000002002900220039004200490814D694625
:10400000280000F007F94FF400700090694628007E
:1040100000F000F97949086850F400100860086859
:1040200010F40010059005987548016851F40011CE
:104030000160016831F40011016000220F211F208E
:1040400000F0AEFB1F2000F0C0FB00220F2120205B
:1040500000F0A6FB202000F0B8FB07B030BD10B583
:104060000400200000F060FE00281BD1614884425B
:1040700002D16548206001E06448206064486060C7
:104080000020A0600120E06000202061002060612D
:104090000020E061002020622000FFF74BFF20009D
:1040A00000F0BAFB10BD2DE9FE4304000D00160020
:1040B0001F005FF000084FF47A700290BDF82C00EA
:1040C00001900A9800903B009BB2320092B2290006
:1040D000C9B289B2200000F022FD81464846C0B234
:1040E000002804D02900C9B2200000F02CF848466E
:1040F000C0B2BDE8FE832DE9FE4304000D001600AA
:104100001F005FF000084FF47A700290BDF82C0099
:1041100001900A9800903B009BB2320092B22900B5
:10412000C9B289B2200000F0FEFB81464846C0B209
:10413000002804D02900C9B2200000F004F8484645
:10414000C0B2BDE8FE8338B505000C00280000F0C1
:10415000C9FB2800FFF783FF31BD80B52548FFF775
:104160007EFF01BD704776B582B004000D00BDF83A
:104170000C60300080B2000AADF80C00BDF80C00F5
:1041800050EA0620ADF80C000220019003A8009030
:1041900002232A0092B22100C9B21648FFF7ABFFF2
:1041A0007FBD7FB504000D000020ADF8080000269B
:1041B0000220019002A8009002232A0092B221005E
:1041C000C9B20C48FFF76FFFBDF8081089B2090AA1
:1041D000BDF8080051EA0021ADF80810BDF808004C
:1041E00004B070BD10B50400200000F02DFF10BD1C
:1041F000303802406C9A0020001C024040380240D7
:104200002038024000040240005C0040005400409E
:10421000322791402DE9F841002200250023002695
:104220000024102C80F00981012717FA04F21500F0
:104230000A682A401300AB4240F0FD804A68022A17
:1042400002D04A68122A1FD12200D20800EB820253
:10425000D2F820C05FF00F0E14F00702D2B2920025
:104260001EFA02FE3CEA0E0CD1F810E014F0070230
:10427000D2B292001EFA02FE5EEA0C0C66462200E2
:10428000D20800EB82021662D0F800C05FF0030E85
:104290002200D2B252001EFA02F23CEA020C91F85D
:1042A000048018F003082200D2B2520018FA02F873
:1042B00058EA0C0CC0F800C04A68012A08D04A68C5
:1042C000022A05D04A68112A02D04A68122A1BD154
:1042D00086682200D2B252001EFA02F29643D1F84A
:1042E0000C802200D2B2520018FA02F858EA0606F0
:1042F00086604268A740BA434F68C7F30017A740DB
:104300003A439446C0F804C0C6682200D2B25200B4
:104310001EFA02FE36EA0E068F682200D2B2520062
:1043200097403E43C6604A68D20040F18480DFF87F
:1043300014733A6852F480423A603A6812F4804248
:104340000092009ADFF800732200920857F822C00A
:104350005FF00F0E14F00302D2B292001EFA02FEBA
:104360003CEA0E0CDFF8E422904201D1002630E056
:10437000DFF8DC22904201D101262AE0DFF8D422C6
:10438000904201D1022624E0DFF8CC22904201D1F4
:1043900003261EE0B14A904201D1042619E0B04A3A
:1043A000904201D1052614E0AE4A904201D1062682
:1043B0000FE0AD4A904201D107260AE0AB4A904295
:1043C00001D1082605E0AA4A904201D1092600E061
:1043D0000A26F6B214F00302D2B29200964056EAD0
:1043E0000C0C2200920847F822C0A24E32689A4371
:1043F0004F68FF0300D51A4332609F4F3E689E43CB
:10440000D1F804C05FEA8C3C00D51E433E609B4A55
:1044100017689F43D1F804C05FEACC2C00D51F4336
:104420001760974A16689E43D1F804C05FEA8C2C47
:1044300000D51E431660641CF3E6BDE8F1812DE94A
:10444000F0430023002400250026102E80F0CF80AA
:10445000012717FA06F2130013EA010214009C4226
:1044600040F0C380DFF8E0E1320092085EF82220DD
:104470005FF00F0C16F003085FFA88F85FEA88080F
:104480001CFA08F818EA02021500704A904202D19C
:104490005FF0000837E06E4A904202D15FF00108F9
:1044A00031E06C4A904202D15FF002082BE06A4A88
:1044B000904202D15FF0030825E0684A904202D1A1
:1044C0005FF004081FE0664A904202D15FF00508E1
:1044D00019E0644A904202D15FF0060813E0624A94
:1044E000904202D15FF007080DE0604A904202D18D
:1044F0005FF0080807E05E4A904202D15FF00908C9
:1045000001E05FF00A085FFA88F816F00302D2B201
:10451000920018FA02F845452CD116F00302D2B2E7
:1045200092001CFA02F21500320092085EF8228016
:1045300038EA0508320092084EF82280DFF834E1AC
:10454000DEF80020A243CEF80020DFF82CE1DEF8F0
:104550000020A243CEF80020DFF820E1DEF80020A2
:10456000A243CEF80020DFF818E1DEF80020A243D5
:10457000CEF800205FF0030E0268B0465FFA88F8BC
:104580005FEA48081EFA08F832EA080202603200C0
:10459000D20800EB82083200D20800EB8202D2F887
:1045A000209016F00702D2B292001CFA02FC39EAFF
:1045B0000C0CC8F820C08268B4465FFA8CFC5FEA35
:1045C0004C0C1EFA0CFC32EA0C0282604268B740C6
:1045D00032EA07074760C7683200D2B252001EFABB
:1045E00002FE37EA0E0EC0F80CE0761C2DE7BDE89F
:1045F000F08302001369080080B2034201D0012059
:1046000000E00020C0B270471300DBB2002B03D0E3
:104610000B009BB2836103E00B009BB21B04836120
:10462000704743690A0092B213400A0092B2934263
:1046300004D10A0092B21204826102E00A0092B22E
:10464000826170474438024008380140000002404F
:104650000004024000080240000C0240001002402A
:104660000014024000180240001C024000200240DA
:1046700000240240003C0140043C0140083C014051
:104680000C3C014010B410F00702DFF868311C68E0
:104690004FF6FF010C4054EA0224DFF85C110C4392
:1046A0001C6010BC7047DFF84C010068C0F30220AA
:1046B0007047010049B200290AD4012210F01F01FD
:1046C0008A40DFF83831010049B2490943F8212016
:1046D0007047010049B200290DD4012210F01F01DA
:1046E0008A40474B010049B2490943F82120BFF3F2
:1046F0004F8FBFF36F8F704710B4020052B2002A81
:1047000005D40C013F4B020052B29C5408E00A0150
:104710003D4C03005BB213F00F03234403F8042C59
:1047200010BC704770B4030013F00704D4F1070005
:10473000052801D3042001E0D4F10700251D072D31
:1047400001D2002600E0E61E012515FA00F0401E09
:104750000140B14015FA06F6761E324011430800BA
:1047600070BC704710B50400601EB0F1807F01D3AB
:1047700001200EE0611E254801600F215FF0FF302F
:10478000FFF7BAFF0021224801600721214801609C
:10479000002010BD10B504002000FFF773FF10BD0E
:1047A0002DE9F04180460C0015000026FFF77BFF45
:1047B00007002A0021003800FFF7B4FF010040463F
:1047C00040B2FFF799FFBDE8F08110B5040020006A
:1047D00040B2FFF76EFF10BD10B50400200040B2DC
:1047E000FFF777FF10BD10B504002000FFF7BAFFF8
:1047F00010BD00000CED00E00000FA0500E100E053
:1048000080E100E000E400E018ED00E014E000E0EA
:1048100018E000E010E000E010B50400002C01D129
:1048200001205EE094F84100002805D1002084F8C2
:104830004000200000F048FC242084F8410020685B
:1048400001684908490020680160616831F07061C1
:10485000206801612068816831F40041206881602E
:10486000E068012805D1A16851F400412068816009
:1048700004E0A16851F4044120688160E0680228E6
:1048800003D14FF40060216848602068416841F01E
:10489000007151F40041206841602068C16831F422
:1048A00000412068C160216960690143A06951EA43
:1048B00000212068C160E169206A0143206801602D
:1048C0002068006850F001002168086000206064E2
:1048D000202084F8410000202063002084F842005A
:1048E000002010BD10B50400002C01D1012019E0FA
:1048F000242084F8410020680168490849002068A4
:104900000160200000F015FC00206064002084F8A5
:10491000410000202063002084F84200002084F839
:104920004000002010BD2DE9FE4F83468A46160048
:104930001F000C9C0D9DDDF838809BF8410020285D
:1049400040F0EA80002C03D0280080B2002805D176
:104950004FF40070CBF844000120DEE09BF84000EB
:10496000012801D10220D8E001208BF8400000F09E
:1049700045FE8146CDF80090192301224FF40041F5
:10498000584600F07BFA002801D00120C5E0212024
:104990008BF8410040208BF842000020CBF8440007
:1049A000CBF82440ABF82A500020CBF83400CDF8E7
:1049B0000490CDF800803B009BB2320092B2514689
:1049C00089B2584600F0B3F9002804D000208BF8D3
:1049D00040000120A1E0BBF82A00B0F5807F0FD392
:1049E000FF20ABF82800002000905FF08073BBF838
:1049F0002820D2B2514689B2584600F008FB0FE099
:104A0000BBF82A00ABF82800002000905FF000738C
:104A1000BBF82820D2B2514689B2584600F0F7FAC6
:104A20004A464146584600F058FA002801D0012075
:104A300073E0DBF824000178DBF800008162DBF82A
:104A40002400401CCBF82400BBF82A00401EABF821
:104A50002A00BBF82800401EABF82800BBF82A004B
:104A6000002834D0BBF82800002830D1CDF80090C1
:104A7000434600228021584600F000FA002801D069
:104A800001204AE0BBF82A00B0F5807F0FD3FF2059
:104A9000ABF82800002000905FF08073BBF828205E
:104AA000D2B2514689B2584600F0B1FA0FE0BBF8D5
:104AB0002A00ABF82800002000905FF00073BBF8DC
:104AC0002820D2B2514689B2584600F0A0FABBF86D
:104AD0002A000028A4D14A464146584600F029FA47
:104AE000002801D0012018E02021DBF80000C1617E
:104AF000DBF800004168DFF828020140DBF8000025
:104B0000416020208BF8410000208BF842000020FB
:104B10008BF84000002000E00220BDE8FE8F2DE968
:104B2000FE4F83468A4616001F000C9C0D9DDDF843
:104B300038809BF84100202840F0EF80002C03D003
:104B4000280080B2002805D14FF40070CBF8440053
:104B50000120E3E09BF84000012801D10220DDE0C4
:104B600001208BF8400000F049FD8146CDF800900F
:104B7000192301224FF40041584600F07FF9002824
:104B800001D00120CAE022208BF8410040208BF8A0
:104B900042000020CBF84400CBF82440ABF82A5068
:104BA0000020CBF83400CDF80490CDF800803B0015
:104BB0009BB2320092B2514689B2584600F002F9D7
:104BC000002804D000208BF840000120A6E0BBF8AC
:104BD0002A00B0F5807F10D3FF20ABF82800DFF863
:104BE000440100905FF08073BBF82820D2B2514698
:104BF00089B2584600F00BFA10E0BBF82A00ABF877
:104C00002800DFF8200100905FF00073BBF8282037
:104C1000D2B2514689B2584600F0F9F9CDF8009069
:104C2000434600220421584600F028F9002801D00C
:104C3000012073E0DBF80000416ADBF8240001701A
:104C4000DBF82400401CCBF82400BBF82800401EF1
:104C5000ABF82800BBF82A00401EABF82A00BBF8CE
:104C60002A00002834D0BBF82800002830D1CDF825
:104C70000090434600228021584600F0FFF80028AB
:104C800001D001204AE0BBF82A00B0F5807F0FD3A5
:104C9000FF20ABF82800002000905FF08073BBF885
:104CA0002820D2B2514689B2584600F0B0F90FE040
:104CB000BBF82A00ABF82800002000905FF00073DA
:104CC000BBF82820D2B2514689B2584600F09FF96D
:104CD000BBF82A000028A1D14A464146584600F0B8
:104CE00028F9002801D0012018E02021DBF800007D
:104CF000C161DBF800004168DFF824000140DBF807
:104D00000000416020208BF8410000208BF8420019
:104D100000208BF84000002000E00220BDE8FE8F5C
:104D200000E800FE0024008090F8410070472DE963
:104D3000F84304000D0016001F00DDF82080DDF8A8
:104D40002490DFF8F80200905FF080733A00D2B24E
:104D5000290089B2200000F05AF94A464146200055
:104D600000F0BBF8002801D0012028E0380080B214
:104D7000012804D13100C9B22068816212E03100FB
:104D800089B2090AC9B2206881624A4641462000B8
:104D900000F0A3F8002801D0012010E03100C9B2D2
:104DA00020688162CDF800904346002280212000D7
:104DB00000F064F8002801D0012000E00020BDE8E8
:104DC000F28300002DE9F84304000D0016001F00D7
:104DD000DDF82080DDF82490DFF8600200900023E9
:104DE0003A00D2B2290089B2200000F010F94A46F8
:104DF0004146200000F071F8002801D0012028E091
:104E0000380080B2012804D13100C9B22068816223
:104E100012E0310089B2090AC9B2206881624A46AB
:104E20004146200000F059F8002801D0012010E090
:104E30003100C9B220688162CDF80090434600225B
:104E40004021200000F01AF8002801D0012000E0E5
:104E50000020BDE8F283000001688969890702D556
:104E6000002201688A6201688969C90705D401685E
:104E70008A6952F0010201688A6170472DE9F041A8
:104E800005000E0090461C00069F2868806930408F
:104E9000B04201D1012100E000214046C0B2814270
:104EA00018D114F1010FF0D000F0A8FBC01B844210
:104EB00001D3002CE9D1686C50F0200068642020F8
:104EC00085F84100002085F84200002085F8400068
:104ED000012000E00020BDE8F08170B505000C0065
:104EE000160028688069800721D43200210028003C
:104EF00000F048F8002801D0012019E014F1010F5A
:104F0000EFD000F07BFB801B844201D3002CE8D162
:104F1000686C50F020006864202085F84100002073
:104F200085F84200002085F84000012000E00020C4
:104F300070BD70B505000C001600286880698006F9
:104F40001ED432002100280000F01CF8002801D0F7
:104F5000012016E000F052FB801B844201D3002C9C
:104F6000EBD1686C50F020006864202085F8410087
:104F7000002085F84200002085F84000012000E074
:104F8000002070BD70B505000C001600286880690F
:104F9000C0063AD528688069800618D414F1010F3C
:104FA000F8D000F02BFB801B844201D3002CF1D100
:104FB000686C50F020006864202085F841000020D3
:104FC00085F84200002085F8400001201EE01021F5
:104FD0002868C16120212868C1612800FFF73CFFD3
:104FE000286841681648014028684160686C50F0A4
:104FF00004006864202085F84100002085F8420004
:10500000002085F84000012000E0002070BD70B451
:10501000039C05686D680B4E56EA5456B5430E0066
:10502000B6B2B605B60D35431600F6B255EA0645DA
:105030001D4325430668756070BC704700200080E2
:1050400000E800FEFF63FF0370B5040000F0D6FA2D
:105050000500260016F1010F02D00448007836182A
:1050600000F0CCFA401BB042FAD370BD050400201A
:1050700081B0DFF82015086850F08050086008689B
:1050800010F0805000900098DFF80C15086850F47C
:1050900080400860086810F480400090009801B0DB
:1050A000704781B00268DFF8F4148A420AD1DFF851
:1050B000F024116851F480511160116811F480518D
:1050C0000091009901B0704710B586B0040014211A
:1050D000002201A800F098FA2168DFF8C804814294
:1050E00025D1DFF8BC14086850F08000086008681B
:1050F00010F08000009000984FF4C07001901220D2
:10510000029001200390032004900420059001A93F
:10511000DFF89404FFF77EF8DFF87814086850F49D
:1051200000000860086810F400000090009806B0C5
:1051300010BD10B504002168DFF8680481420BD16E
:10514000DFF85014086830F4000008604FF4C071B4
:10515000DFF85404FFF773F910BD2DE9F84F86B05E
:10516000040014210022684600F04EFA2168DFF89E
:105170003C04814240F09A80DFF81C14086850F427
:1051800000600860086810F4006005900598DFF87A
:105190001004016851F004010160016811F004017C
:1051A00005910599016851F008010160006810F04F
:1051B0000800059005984FF4F850009002200190E7
:1051C00000200290032003900C2004906946DFF831
:1051D000E003FFF71FF80420009002200190002058
:1051E0000290032003900C2004906946DFF8C4036A
:1051F000FFF710F8DFF8C053DFF8C00328605FF056
:10520000006BC5F804B00020A8600020E8604FF4EF
:1052100080662E614FF480576F614FF48048C5F867
:1052200018802020E86100202862042068620320A2
:10523000A8625FF40009C5F82C905FF4001AC5F865
:1052400030A0280000F014FA002801D001F0D6FAAE
:10525000E563AC63DFF86853DFF868032860C5F8DE
:1052600004B04020A8600020E8602E616F61C5F89E
:1052700018802020E8610020286204206862032052
:10528000A862C5F82C90C5F830A0280000F0F0F90D
:10529000002801D001F0B2FA2564AC63002200219D
:1052A0003120FFF77DFA3120FFF78FFA07B0BDE814
:1052B000F08F1CB504002068B0F1804F0AD1B549C9
:1052C000086850F001000860086810F001000090C4
:1052D000009825E02168DFF8F00281420AD1AD494B
:1052E000086850F002000860086810F002000090A2
:1052F000009815E02168B548814211D1A549086898
:1053000050F004000860086810F004000090009855
:10531000002200211E20FFF743FA1E20FFF755FA56
:1053200013BD10B586B004001421002201A800F0BE
:105330006BF92168A448814217D19949086850F057
:1053400004000860086810F00400009000988020B5
:10535000019002200290002003900020049002207F
:10536000059001A99248FEF755FF06B010BD10B593
:1053700086B004001421002201A800F045F921683C
:105380009348814221D18449086850F01000086098
:10539000086810F01000009000988149086850F0EB
:1053A00002000860086810F0020000900098C02019
:1053B0000190022002900020039003200490072017
:1053C000059001A98348FEF725FF06B010BD70B512
:1053D00086B004002168804881424BD17F4D286807
:1053E000002811D16C48016851F400010160006887
:1053F00010F4000005900598002200215B20FFF7C3
:10540000CFF95B20FFF7E1F92868401C2860F02005
:1054100000900220019000200290002003900A20BA
:10542000049069466E48FEF7F5FE6E4D6E482860A2
:105430005FF0C06068604020A8600020E8604FF422
:10544000806028614FF4006068614FF40050A861EB
:105450004FF48070E8610020286200206862280014
:1054600000F006F9002801D001F0C8F92567AC6307
:10547000E566AC6320685D49884249D1574D28688C
:10548000002811D14449086850F4000008600868F9
:1054900010F4000005900598002200215B20FFF722
:1054A0007FF95B20FFF791F92868401C28604FF4D2
:1054B000806500950220019000200290002003905A
:1054C0000A20049069464A48FEF7A4FE494E4A481D
:1054D0003060002070600020B0600020F060356116
:1054E0004FF4006070614FF40050B0614FF4807071
:1054F000F0610020306200207062300000F0B8F8E7
:10550000002801D001F07AF92667B463E666B46337
:1055100006B070BD10B5040021682F48814218D133
:105520002E490868401E08600868002807D11A49FB
:10553000086830F4000008605B20FFF74DF9F021A7
:105540002748FEF77CFF206F00F004F9E06E00F0C2
:1055500001F921682548814219D120490868401E77
:1055600008600868002807D10B49086830F400007B
:1055700008605B20FFF730F94FF480611C48FEF7AC
:105580005EFF206F00F0E6F8E06E00F0E3F810BD7B
:105590000000000040380240443802400030024021
:1055A00030380240005C0040001C0240002C0140EA
:1055B00000080240000C0240489800205864024055
:1055C000A8980020A06402400004004000080040A9
:1055D0000010014000040240045C0140FC9E0020D9
:1055E000002002408897002070640240245C014043
:1055F00000180240E8970020B864024001480068A3
:10560000704700BFF89E002062F30F2262F31F4232
:10561000401810F0030308D0C91A1FD3DB0748BF96
:1056200000F8012D28BF20F8022D130030B41446D5
:105630001546103928BF20E93C00FAD8490728BF91
:1056400020E90C0048BF40F8042D890028BF20F84D
:10565000022D48BF00F8012D30BC7047C91818BF93
:1056600000F8012DCB0728BF00F8012D704700007E
:1056700070B504000026FFF7C1FF0500002C01D122
:10568000012066E0606A0028002084F834000220CF
:1056900084F83500206801684908490020680160E5
:1056A00020680068C0070BD5FFF7A8FF401B06283D
:1056B000F6D320206065032084F83500032048E0FD
:1056C00020680168DFF8EC04014060680143A068CD
:1056D0000143E06801432069014360690143A06917
:1056E0000143E0690143206A0143606A042804D150
:1056F000E06A01430800216B0143206801602068D3
:105700004669F608F600606A0643606A042810D10C
:10571000A06A0643E06A00280BD0200000F050FA8F
:10572000002806D040206065012084F83500012063
:105730000FE020684661200000F023FA01003F22BC
:10574000E06D82408A6000206065012084F83500A9
:10575000002070BD10B50400002C01D101203AE0FA
:1057600094F83500022801D1022034E02068016855
:10577000490849002068016000212068016000217B
:105780002068416000212068816000212068C1609C
:10579000002120680161212021684861200000F07B
:1057A000F0F901003F22E06D82408A600020E06352
:1057B00000202064002060640020A0640020E064D9
:1057C0000020206500206065002084F8350000205E
:1057D00084F83400002010BD2DE9F84381460C0008
:1057E00015001E000027D9F8588099F834000128C8
:1057F00001D1022044E0012089F8340099F83500F5
:10580000012836D1022089F835000020C9F854005B
:1058100033002A002100484600F09CF93F21D9F8C6
:105820005C008140C8F80810D9F80000016851F008
:105830001601D9F800000160D9F80000416951F063
:105840008001D9F800004161D9F84000002807D054
:10585000D9F80000016851F00801D9F80000016092
:10586000D9F80000016851F00101D9F80000016089
:1058700004E0002089F83400022007003800C0B29C
:10588000BDE8F28370B50400A56DFFF7B7FE060012
:1058900094F83500022806D080206065002084F846
:1058A000340001203BE02068016831F016012068D7
:1058B00001602068416931F0800120684161206CFD
:1058C000002802D1A06C002805D02068016831F0C2
:1058D00008012068016020680168490849002068C3
:1058E000016020680068C0070ED5FFF787FE801BA7
:1058F0000628F6D320206065002084F834000320B9
:1059000084F8350003200AE03F21E06D8140A96062
:10591000002084F83400012084F83500002070BD98
:10592000010091F83500022803D08020486501204D
:1059300009E0052081F83500086802685208520025
:105940000868026000207047F8B50700002000904A
:10595000DFF8640201684FF41650B1FBF0F4BD6D3E
:105960002E680821F86D11FA00F0064210D0386850
:10597000006840070CD53868006830F004003A68C9
:105980001060F86D8140A960786D50F00100786575
:10599000F96D3000C840C0070BD538684069000673
:1059A00007D50121F86D8140A960786D50F00200A3
:1059B00078650421F86D11FA00F006420AD03868C3
:1059C0000068800706D5F86D8140A960786D50F0B9
:1059D000040078651021F86D11FA00F006422CD011
:1059E00038680068000728D5F86D8140A9603868DC
:1059F0000068400311D538680068000306D4386C8D
:105A000000281AD03800396C884716E0B86C002896
:105A100013D03800B96C88470FE038680068C005BB
:105A200005D43868006830F0080039680860386CC0
:105A3000002802D03800396C88472021F86D11FA0F
:105A400000F006425FD038680068C0065BD5F86D8C
:105A50008140A96097F83500052828D1386800688A
:105A600030F01600396808603868406930F080000E
:105A700039684861386C002802D1B86C002805D01C
:105A80003868016831F00801386801603F21F86D1D
:105A90008140A960002087F83400012087F8350094
:105AA000386D002802D03800396D88474FE03868DB
:105AB0000068400311D538680068000306D4786C8C
:105AC000002820D03800796C88471CE0F86B00284B
:105AD00019D03800F96B884715E038680068C005B0
